:020000040800F2
:1000000088050020210800082506000827060008AA
:100010002B0600082F060008330600080000000029
:10002000000000000000000000000000370600088B
:1000300039060008000000003B0600083D060008E5
:100040003B0800083B0800083B0800083B08000884
:100050003B0800083B0800083B0800083B08000874
:100060003B0800083B0800083B0800083B08000864
:100070003B0800083B0800083B0800083B08000854
:100080003B0800083B0800083B0800083B08000844
:100090003B0800083B0800083B0800083B08000834
:1000A0003B0800083B0800083B0800083B08000824
:1000B000CD040008A30D00088F0E00083B080008BF
:1000C0003B0800083B0800083B0800083B08000804
:1000D0003B0800083B080008DD0900083B08000851
:1000E0003B0800083B0800083B0800083B080008E4
:1000F0003B0800083B0800083B0800083B080008D4
:100100003B0800083B0800083B0800083B080008C3
:100110003B0800083B0800083B0800083B080008B3
:100120003B0800083B0800083B0800083B080008A3
:10013000DFF80CD003F032F8004800476D040008E7
:10014000880500202DE9F041FE4802F03BFCFE4905
:100150000860FE4800680968884271D0FA48006863
:10016000303809286BD2DFE800F0050D1C2B344332
:10017000525A6200F649F748006802F0E7FCF54978
:1001800008605CE0F448006802F0DEFE06460022EB
:10019000F24B02F0A3FD044602F01AFFEE4908609C
:1001A0004DE0EF48006802F0CFFE0646ED4AEE4B08
:1001B00002F094FD044602F00BFFE94908603EE0BE
:1001C0004FF07E51E348006802F012FDE1490860FB
:1001D00035E0E148006802F0B7FE0646E14AE24B2E
:1001E00002F01DFE044602F0F3FEDB49086026E043
:1001F000DB48006802F0A8FE0646DA4ADA4B02F055
:100200000EFE044602F0E4FED549086017E0D74927
:10021000D748006802F09AFCD54908600FE0D5493C
:10022000D348006802F0E4FCD149086007E0D249F5
:10023000CF48006802F08AFCCD49086000BF00BFCB
:10024000C1480068C1490860BDE8F0812DE9F05F50
:10025000CA49CB48006802F0D1FC0446C94801688D
:10026000204602F0C8FCC8490860C84801684FF041
:10027000804002F0C3FC8046C3480168404602F05B
:10028000BAFC0746C2480168384602F05FFC0646E1
:10029000B3480168304602F0B1FC0446BA48016830
:1002A000AD48006802F0AAFC0746B8480168B648A5
:1002B000006802F09DFC8046A6480168404602F0B6
:1002C0009DFC0646394602F041FC0546214602F0F7
:1002D0003DFCB0490860AD480068AD490860AA48D7
:1002E0000068AA490860AC48006802F02DFE044688
:1002F0000D46A848006802F027FE8046A74AA84B92
:1003000002F093FD064622462B4602F0E7FC8246A9
:1003100002F05EFEA049086094499F48006802F020
:100320007DFE02D291489C4908609E499A48006827
:1003300002F06AFE02D29B4897490860964801681D
:10034000032000F03FFCBDE8F09F2DE9F05F8B49F2
:100350008B48006802F052FC04468548016820463C
:1003600002F049FC90490860904801684FF08040D5
:1003700002F044FC80468C480168404602F03BFC99
:1003800007468B480168384602F0E0FB0646744891
:100390000168304602F032FC0446834801686E482A
:1003A000006802F02BFC0746804801687E48006820
:1003B00002F01EFC804667480168404602F01EFCC1
:1003C0000646394602F0C2FB0546214602F0BEFB56
:1003D0007849086075480068754908607248006887
:1003E000724908607448006802F0AEFD04460D468C
:1003F0007048006802F0A8FD8046684A684B02F029
:1004000014FD064622462B4602F068FC824602F0A6
:10041000DFFD6949086055496748006802F0FEFD44
:1004200002D25248644908605E496348006802F09D
:10043000EBFD02D25B48604908605F48016802201A
:1004400000F0C0FBBDE8F09F10B500F0FBF900F034
:1004500063FA00F0B1FB00F0F7FB00F004FC00F0E1
:1004600035FC00F0A9FC00F044FD10BDFFF7ECFFE7
:100470005249022000F0A6FB5049032000F0A2FBE5
:1004800000F02EFE21E0FFF760FFFFF7DFFE00F037
:1004900079FD36493648006802F0C0FD01D20124DA
:1004A00000E0002431493748006802F0B7FD01D26E
:1004B000012000E00020044324B141482C49086099
:1004C00030490860012000F0FAF9DCE770B501213D
:1004D000880702F022F900287CD000F057FCA0F534
:1004E000EA4030383749086008460068002803DAD7
:1004F00008460068404208603248006802F007FD84
:1005000005464FF0814102F0ABFB04462E4902F054
:10051000A7FB1B49086019491948006802F06EFBE7
:100520002A49086000F0A8FCA0F5EA4030382849C4
:10053000086008460068002803DA08460068404260
:10054000086048E000380140140000201800002036
:1005500000004040080000200C0000200000E03FA8
:10056000100000209A9999999999B93F0000C842C2
:100570009400002000002042000048420080BB455B
:10058000380000209800002044000020480000208F
:100590004C0000205400002058000020FA7E6ABC65
:1005A0007493883F00002041200000202400002098
:1005B0002800002030000020340000200000A0416E
:1005C0000000BE423C0000209A99AA431C00002073
:1005D000600000201BE00E48006802F098FC054611
:1005E0004FF0814102F03CFB04460A4902F038FB1F
:1005F0000949086009490848006802F0FFFA0849FB
:100600000860FFF79FFD0121880702F097F870BD91
:10061000600000209A99AA435C0000200080BB453E
:1006200040000020704700BFFEE700BFFEE700BFAC
:10063000FEE700BFFEE77047704770477047000055
:100640000CB50020019000906C48006840F48030A8
:100650006A49086000BF6948006800F400300090F3
:100660000198401C0190009818B90198B0F5A06F4E
:10067000F1D16248006800F4003010B10120009010
:1006800001E0002000900098012843D15C480068F8
:1006900040F010005A4908600846006820F0030046
:1006A00008600846006840F002000860534840684F
:1006B000524948600846406848600846406840F42F
:1006C000806048600846406820F47C104860084616
:1006D000406840F4E81048600846006840F08070C8
:1006E000086000BF4548006800F000700028F9D09D
:1006F0004248406820F0030040494860084640688E
:1007000040F00200486000BF3C48406800F00C0028
:100710000828F9D10CBD10B5FFF792FF10BD10B538
:100720003648006840F001003449086008464068D7
:100730003449084031494860084600683249084059
:100740002E4908600846006820F4802008600846AA
:10075000406820F4FE0048604FF41F008860FFF7F7
:10076000DAFF4FF000602949086010BD10B5002184
:1007700000200022214B5B6803F00C0121B1042909
:1007800006D0082928D107E0214B224C236027E01E
:100790001F4B204C236023E0184B5B6803F4701060
:1007A000164B5B6803F48032022303EB904022B9BE
:1007B000194B4343174C23600DE0104B5B6803F467
:1007C000003323B1144B4343124C236003E0104B1E
:1007D0004343104C236003E00D4B0E4C236000BFDD
:1007E00000BF064B5B68C3F303130C4CE15C094B81
:1007F0001B68CB40074C236010BD00000010024076
:10080000002002400000FFF8FFFFF6FE08ED00E0C8
:1008100000127A006400002000093D0068000020FA
:100820000648804706480047FEE7FEE7FEE7FEE78A
:10083000FEE7FEE7FEE7FEE7FEE7FEE71F0700082C
:100840003101000810B56FF0040000F0CEFC2E4816
:1008500000682E49B0FBF1F02D4908700846007879
:1008600000EB4001C1EBC0104FF6FF7101EAC00080
:100870002849088010BD0146254A12784A434FF0A6
:10088000E0235A6100229A611A46126942F001027D
:100890001A6100BF4FF0E022106900F001021AB1A6
:1008A00000F48032002AF5D04FF0E022126922F0E5
:1008B00001024FF0E0231A6100229A61704701465D
:1008C000144A12884A434FF0E0235A6100229A6189
:1008D0001A46126942F001021A6100BF4FF0E0228D
:1008E000106900F001021AB100F48032002AF5D03C
:1008F0004FF0E022126922F001024FF0E0231A616A
:1009000000229A61704700006400002000127A0003
:10091000780000207A00002010B54FF4A06000F0AD
:1009200015FC10BD014600BF704700BF4A4A12883F
:1009300002F04002002AF9D0C2B2474B1B1D1A80B8
:10094000704710B586B004460121042000F088FFEE
:100950000121480400F091FF0420ADF814000320A9
:100960008DF8160018208DF8170005A93B4800F0F7
:10097000BBFC0820ADF8140004208DF8170005A971
:10098000364800F0B1FC26208DF8000003208DF8D9
:1009900001008DF8020001208DF80300684600F088
:1009A000DAFB01940020ADF80800ADF80A00ADF8BC
:1009B0000C00ADF810000C20ADF80E0001A926487F
:1009C00001F003FF012240F22551234801F095FF79
:1009D0000121214801F085FF06B010BD10B540F29D
:1009E00025511D4802F06EF810B31B4801F0EAFFD4
:1009F000C4B21B48008800F40040C8B918480088F9
:100A000000F4804060B10A2C03D000201449088013
:100A100020E01348008840F400401149088019E0A4
:100A20000D2C06D10E48008840F480400C49088007
:100A300010E00B480088C0F30D000A490C54084828
:100A40000088401C0649088008460088C72801DD48
:100A50000020088010BD0000004400400008014054
:100A600080000020C000002008B50121C80200F06D
:100A7000F7FE0121082000F0F3FE4FF46040ADF8CE
:100A8000000018208DF8030003208DF8020069464D
:100A9000884800F029FC0121042000F0E1FE01203B
:100AA000ADF8000010208DF8030003208DF802003F
:100AB0006946814800F018FC08BD70B588B04CF25A
:100AC0005036741025466000ADF818000020ADF8CF
:100AD0001400ADF81A00ADF8160005A9774800F02B
:100AE000F7FF7020ADF804000120ADF806000420E7
:100AF000ADF80800ADF80A600220ADF80C0008203F
:100B0000ADF80E004001ADF810000020ADF8120065
:100B100001A96A4801F019F80821684801F064FC4D
:100B20007020ADF804000120ADF806000420ADF8F7
:100B30000800ADF80A400220ADF80C000820ADF81E
:100B40000E004001ADF810000020ADF8120001A920
:100B50005A4801F03CF80821584801F04EFC70203A
:100B6000ADF804000120ADF806000420ADF808003F
:100B7000ADF80A500220ADF80C000820ADF80E00C8
:100B80004001ADF810000020ADF8120001A94B485B
:100B900001F06AF80821494801F03CFC012147486E
:100BA00001F0F2FB0121454801F0EEFA0121434832
:100BB00001F0F6FA08B070BD10B5FFF755FFFFF76A
:100BC0007CFF10BD2DE9F04105468846404602F005
:100BD000BBF9064600223A4B02F0E2F901D2DFF8F7
:100BE000E480404602F0B0F906460022134602F0C7
:100BF000BFF901D24FF000084146324801F0F8FF3A
:100C000080464146304801F0F9FF07462D4902F081
:100C100027F8064602F084F984B2012D04D0022D93
:100C200006D0032D0CD107E024483430048008E0BE
:100C300022483830048004E020483C30048000E042
:100C400000BF00BFBDE8F08108B51C208DF8000092
:100C500001208DF801008DF802008DF80300684630
:100C600000F079FA08BD0EB50121084600F005FE36
:100C70004FF0804000F058FE40F2CF20ADF8000069
:100C800040F2E730ADF804000020ADF802006946FC
:100C90004FF0804000F01CFF0121880701F03AFD71
:100CA00001221146900701F08AFA0121880701F01C
:100CB0006BFA0EBD000C014000080140002C014001
:100CC000000059400000C8420050434700B589B0B9
:100CD0000121022000F0D1FD0121042000F0C0FD1F
:100CE00002A800F08CFBC020ADF8080004208DF8AD
:100CF0000B0002A96B4800F0F7FA1D208DF80400E4
:100D000001208DF8050000208DF8060001208DF8E7
:100D1000070001A800F01FFA634800F005FE06A8CE
:100D200001F002FA0020ADF818004FF6FF70ADF8A0
:100D30001C000020ADF81E00ADF81A0006A95A48A4
:100D400000F0C6FE00231A460321574801F0CFFAEF
:100D500003A801F0FCF90620ADF8140003A95248DD
:100D600001F049F90121504801F0D4FC012211465B
:100D70004D4801F024FA47F230504B4924310880A5
:100D80000121494801F000FA09B000BD10B54648FC
:100D90002430048847F23051434801F089FC204652
:100DA00010BD10B50121404801F0B4FC47F23050AD
:100DB0003D492431088010BD00B589B001210420CF
:100DC00000F05BFD0121082000F04AFD02A800F0C0
:100DD00016FBC020ADF8080004208DF80B0002A916
:100DE000324800F081FA1E208DF8040001208DF8B1
:100DF000050000208DF8060001208DF8070001A8ED
:100E000000F0A9F92A4800F08FFD06A801F08CF93E
:100E10000020ADF818004FF6FF70ADF81C00002060
:100E2000ADF81E00ADF81A0006A9214800F050FEEA
:100E300000231A4603211E4801F059FA03A801F0C5
:100E400086F90620ADF8140003A9194801F0D3F87B
:100E50000121174801F05EFC01221146144801F0FF
:100E6000AEF947F230501249243108800121104870
:100E700001F08AF909B000BD10B50D48243004888E
:100E800047F230510A4801F013FC204610BD10B55E
:100E90000121074801F03EFC47F23050044924315B
:100EA000088010BD0008014000040040000C014013
:100EB000000800402DE9F04104460D4616461F4645
:100EC0004FF48041594800F0A2FA20604FF40051DD
:100ED000564800F09CFA28604FF40041534800F057
:100EE00096FA30600221524800F091FA3860BDE86D
:100EF000F08108B50121102000F0B2FC4FF48040D1
:100F0000ADF8000048208DF8030003208DF80200A2
:100F10006946464800F0E8F90121102000F0A0FCE5
:100F20004FF40050ADF8000048208DF80300032076
:100F30008DF8020069463D4800F0D6F901211020E5
:100F400000F08EFC4FF40040ADF8000048208DF812
:100F5000030003208DF802006946344800F0C4F90C
:100F60000121082000F07CFC0220ADF800004820A0
:100F70008DF8030003208DF8020069462C4800F02C
:100F8000B3F908BD10B52B4B2B4A2C492C48FFF761
:100F900091FF2B48006810B12848006830B92548F7
:100FA000006818B90C2000F069F83BE0244800689C
:100FB00048B92148006810B11E48006818B90C20D3
:100FC00000F075F82EE01E48006818B9062000F001
:100FD00055F827E01748006818B9062000F067F8B0
:100FE00020E01648006838B913480068012803D18A
:100FF000062000F043F815E010480068012806D1EB
:101000000D48006818B9062000F051F80AE00B48B6
:10101000006828B90848006810B900F061F801E0DC
:1010200000F05EF86420FFF74AFC10BD001001409C
:10103000000C0140900000208C000020880000205F
:101040008400002010B538480068B0B937490968F5
:1010500001EB8101480001F05AFF3549086035492C
:101060003348006801F0DAFF02D201202E490860FF
:101070002E480068401C2D49086010BD70B504461C
:10108000204601F044FF05462B480168284601F040
:101090005DFD2949086029492748006801F0BEFF25
:1010A00004D22748224908602349086070BD70B502
:1010B0000446204601F02BFF05461D4801682846DE
:1010C00001F044FD1A4908601C491948006801F004
:1010D000A5FF04D21A48164908601749086070BD78
:1010E00018481349086014490860704710B50E4845
:1010F0000068012816D10D49096801EB81014800FB
:1011000001F005FF0A4908600F490948006801F02D
:101110007BFF02D200200449086004480068401E9A
:101120000249086010BD0000A00000209C000020C3
:101130009400002000004843980000200000C842AE
:101140000000BE42000070420000204131490143CE
:10115000314A1160704770B5002100230F22C47816
:1011600004B32D4C246804F4E064C4F5E064210A5F
:10117000C1F10403CA40447804FA03F184781440AE
:1011800021430901254C0678A155047804F01F0578
:101190000124AC4005786D11AD0005F1E025C5F8DE
:1011A000004109E0047804F01F050124AC401C4D07
:1011B0000678761145F8264070BD1A4A0A40024367
:1011C000154B1B1F1A60704739B1134A121D126864
:1011D0000243114B1B1D1A6006E00F4A121D1268D4
:1011E00082430D4B1B1D1A607047042808D14FF035
:1011F000E021096941F004014FF0E022116107E0AC
:101200004FF0E021096921F004014FF0E022116163
:10121000704700000000FA050CED00E000E400E07B
:1012200080E100E080FFFF1F10B50446CC488442F7
:1012300008D10121042000F02DFB0021042000F042
:1012400029FB46E0C748844208D10121082000F06C
:1012500021FB0021082000F01DFB3AE0C248844237
:1012600008D10121102000F015FB0021102000F012
:1012700011FB2EE0BD48844208D10121202000F05E
:1012800009FB0021202000F005FB22E0B848844241
:1012900008D10121402000F0FDFA0021402000F09B
:1012A000F9FA16E0B348844208D10121802000F009
:1012B000F1FA0021802000F0EDFA0AE0AE48844205
:1012C00007D10121801500F0E5FA0021A01500F0FA
:1012D000E1FA10BD10B50121084600F0DBFA00214B
:1012E000012000F0D7FA10BD2DE9F041024600259B
:1012F0000026002000230024002791F803C00CF0F2
:101300000F0591F803C00CF0100CBCF1000F03D0D6
:1013100091F802C04CEA050591F800C0BCF1000F3D
:1013200031D0146800202BE04FF0010C0CFA00F3D0
:10133000B1F800C00CEA03069E4220D183004FF0B2
:101340000F0C0CFA03F7BC4305FA03FC4CEA040447
:1013500091F803C0BCF1280F06D14FF0010C0CFA34
:1013600000FCC2F814C00AE091F803C0BCF1480FB9
:1013700005D14FF0010C0CFA00FCC2F810C0401C63
:101380000828D1D31460B1F800C0BCF1FF0F34DDE0
:10139000546800202EE000F1080C4FF0010808FA14
:1013A0000CF3B1F800C00CEA03069E4221D1830081
:1013B0004FF00F0C0CFA03F7BC4305FA03FC4CEAA0
:1013C000040491F803C0BCF1280F05D100F1080C0A
:1013D00008FA0CF8C2F8148091F803C0BCF1480F69
:1013E00007D100F1080C4FF0010808FA0CF8C2F818
:1013F0001080401C0828CED35460BDE8F0814FF621
:10140000FF710180022181700421C1707047024682
:10141000002093680B400BB1012000E000207047D2
:101420000146886880B2704702460020D3680B40AE
:101430000BB1012000E0002070470146C86880B26F
:10144000704701617047416170470AB1016100E076
:1014500041617047C16070474FF480320A43826136
:101460008161826182698269704702460020434B34
:1014700018684FF68073184040EA021008433F4B4B
:10148000186070473E49C8617047F0B50A460023AE
:1014900000240021002500F00046B6F1004F02D1E3
:1014A000364EF16901E0354E7168C0F3034583B2F1
:1014B00000F44016B6F5401F08D121F070612F4EA0
:1014C000766826F070662D4F7E6012E000F480167C
:1014D000B6F5801F06D1032606FA05F4A14341F0B4
:1014E000706106E0460D360103FA06F6B14341F09D
:1014F000706122B1460D360103FA06F6314300F061
:101500000046B6F1004F02D11C4EF16101E01B4EC6
:101510007160F0BD30B500228B071C0F0F2303FA5A
:1015200004F2164B08338C1053F824309343134CB9
:1015300008348D1044F8253023468C1053F824309D
:101540008C07240F00FA04F423430C4C08348D104C
:1015500044F8253030BD0A49DC310860704700008E
:1015600000080140000C014000100140001401403F
:1015700000180140001C0140002001400000014013
:1015800000002042DF48006840F00100DD490860AB
:1015900008464068DC490840DA4948600846006867
:1015A000DA490840D74908600846006820F48020DE
:1015B00008600846406820F4FE0048604FF41F00B1
:1015C00088607047CF49096821F48031CD4A1160A5
:1015D0001146096821F480211160B0F5803F03D0E5
:1015E000B0F5802F0ED106E0C649096841F480317C
:1015F000C44A116007E0C349096841F4A021C14A07
:10160000116000E000BF00BF704710B50146002226
:10161000002300204A11012A02D1BA4C236806E0B7
:10162000022A02D1B74C236A01E0B64C636A01F08A
:101630001F02012494401C400CB1012000E0002056
:1016400010BD38B5002000900024002500BF3120D7
:10165000FFF7DBFF05460098401C00900098B0F5AE
:10166000A06F01D0002DF2D03120FFF7CEFF08B1DE
:10167000012400E00024204638BD01460020A14A94
:10168000106820F0F80040EAC10010607047A049DF
:1016900008607047024600209A4B586820F47C107E
:1016A00042EA01031843974B58607047984908660F
:1016B000704701460020934A506820F00300084319
:1016C000506070478F48406800F00C00704701463A
:1016D00000208C4A506820F0F000084350607047AA
:1016E00001460020874A506820F4E06008435060BB
:1016F000704701460020834A506820F4605040EA59
:10170000C1005060704729B17E4A527A02437D4B36
:101710005A7204E07B4A527A82437A4B5A7270477B
:101720007B49D8310860704701460020754A5068EF
:1017300020F440400843506070470021714A203235
:101740001170704A82F82010012802D004280AD1B2
:1017500004E001216B4A2032117005E00521694A3D
:101760002032117000E000BF00BF70476949086077
:1017700070476449096A0143624A116270476549CA
:1017800044390860704730B500210022002400234E
:101790005C4D6D6805F00C0121B1042905D00829C4
:1017A00023D105E05C4D056022E05B4D05601FE044
:1017B000544D6D6805F47012524D6D6805F4803417
:1017C000022505EB92421CB9544D554305600BE0D0
:1017D0004C4D6D6805F400351DB1504D5543056005
:1017E00002E04D4D5543056002E04B4D056000BFE2
:1017F00000BF444D6D6805F0F0010909484D6B5C70
:101800000568DD4045603F4D6D6805F4E061090AFB
:10181000434D6B5C4568DD4085603A4D6D6805F46D
:101820006051C90A3E4D6B5C4568DD40C560354D71
:101830006D6805F44041890B3A4D6B5CC568B5FB9A
:10184000F3F5056130BD29B12E4A526902432D4B93
:101850005A6104E02B4A526982432A4B5A6170470D
:1018600029B1284A92690243264B9A6104E0254A2D
:1018700092698243234B9A61704729B1214AD26908
:101880000243204BDA6104E01E4AD26982431D4BB9
:10189000DA61704729B11B4AD2680243194BDA60FA
:1018A00004E0184AD2688243164BDA60704729B1C7
:1018B000144A12690243134B1A6104E0114A126977
:1018C0008243104B1A6170471249403908607047D3
:1018D0000F49C86470470B49C87170470948406A8E
:1018E00040F0807007494862704701460020054A71
:1018F00092680A400AB1012000E0002070470149C7
:1019000088727047001002400000FFF8FFFFF6FEEB
:10191000000042428004424200127A0000093D0069
:10192000AC000020BC00002010B50446FE488442F4
:1019300008D10121C014FFF7ADFF0021E014FFF72B
:10194000A9FFC4E0B4F1804F08D101210846FFF798
:10195000AEFF00210120FFF7AAFFB8E0F348844260
:1019600008D101210220FFF7A2FF00210220FFF78A
:101970009EFFACE0EE48844208D101210420FFF72D
:1019800096FF00210420FFF792FFA0E0E94884427F
:1019900008D101210820FFF78AFF00210820FFF766
:1019A00086FF94E0E448844208D101211020FFF72B
:1019B0007EFF00211020FFF77AFF88E0DF48844295
:1019C00008D101212020FFF772FF00212020FFF71E
:1019D0006EFF7CE0DA48844208D101214014FFF711
:1019E00059FF00216014FFF755FF70E0D54884428D
:1019F00009D10121C804FFF74DFF00214FF4002059
:101A0000FFF748FF63E0D048844209D1012108056F
:101A1000FFF740FF00214FF48010FFF73BFF56E037
:101A2000CA48844209D101214805FFF733FF00214C
:101A30004FF40010FFF72EFF49E0C548844208D15B
:101A400001214020FFF733FF00214020FFF72FFF47
:101A50003DE0C048844208D101218020FFF727FFE4
:101A600000218020FFF723FF31E0BB48844208D1EA
:101A700001218015FFF71BFF0021A015FFF717FFBD
:101A800025E0B648844209D101210804FFF702FF8E
:101A900000214FF48030FFF7FDFE18E0B04884428B
:101AA00009D101214804FFF7F5FE00214FF4003071
:101AB000FFF7F0FE0BE0AB48844208D10121880417
:101AC000FFF7E8FE00214FF48020FFF7E3FE10BD92
:101AD00000220288944B98420ED0994B98420BD02A
:101AE000B0F1804F08D0914B984205D0904B98426E
:101AF00002D0904B984204D14FF68F731A404B8816
:101B00001A438D4B984207D08C4B984204D04FF625
:101B1000FF431A40CB881A4302808B8883850B8849
:101B20000385814B98420BD0854B984208D08B4B54
:101B3000984205D08A4B984202D08A4B984201D1F4
:101B40000B7A038601238382704770B5002400223C
:101B50000023058C4FF6FE7635400584028C838881
:101B6000048B4FF68F752C40B51E2C400D882C43EE
:101B7000751E2A400D892A434D882A436A4DA84282
:101B80000BD06F4DA84208D0744DA84205D0744DBB
:101B9000A84202D0734DA84213D14FF6F7752A40E0
:101BA0004D892A434FF6FB752A408D882A434FF60C
:101BB000FF652B404FF6FF552B408D892B43CD8978
:101BC0002B4383800483CD888586028470BD70B5E5
:101BD000002400220023058C4FF6EF763540058463
:101BE000028C8388048B48F6FF752C404FF6FF4526
:101BF0002C400D884FF6FF7606EA05252C434FF65C
:101C0000DF752A400D8906EA05152A434D8806EA44
:101C100005152A43444DA84202D0494DA8421DD182
:101C20004FF67F752A404D894FF6FF7606EA051577
:101C30002A434FF6BF752A408D8806EA05152A43C8
:101C40004FF6FF352B404FF2FF752B408D8906EA8A
:101C500085052B43CD8906EA85052B4383800483C4
:101C6000CD880587028470BD70B500240022002352
:101C7000058C4FF6FF6635400584028C8388848B83
:101C80004FF68F752C404FF6FC752C400D882C4379
:101C90004FF6FF552A400D894FF6FF7606EA0525D7
:101CA0002A434D8806EA05252A431F4DA84202D043
:101CB000234DA8421DD14FF2FF752A404D894FF6A2
:101CC000FF7606EA05252A434FF6FF352A408D8820
:101CD00006EA05252A434EF6FF752B404DF6FF75A3
:101CE0002B408D8906EA05152B43CD8906EA05159B
:101CF0002B4383808483CD888587028470BD70B533
:101D0000002200230024058C4EF6FF763540058422
:101D1000038C8488828B48F6FF752A404FF6FF4576
:101D20002A400D8820E00000002C01400004004003
:101D300000080040000C004000100040001400406B
:101D400000340140004C014000500140005401406B
:101D500000180040001C00400020004000400140EE
:101D600000440140004801404FF6FF7606EA052591
:101D70002A434DF6FF752B400D8906EA05352B43A6
:101D80004D8806EA05352B43FA4DA84202D0FA4D9C
:101D9000A84208D14BF6FF752C408D894FF6FF768F
:101DA00006EA85152C4384808283CD88A0F84050B4
:101DB000038470BD828B4FF2FF331A408283828B83
:101DC0004FF6FF7303EA01231A4382837047F0B58D
:101DD0000C461546002200210026078C4EF6FF7C9B
:101DE00007EA0C070784828B018C4FF6FF7707EA1E
:101DF000043640F6FF473A404FF6FF7707EA0527DB
:101E00003A434FF6FF7707EA03373A43D94FB842D0
:101E10000ED0D94FB8420BD0B0F1804F08D0D74F79
:101E2000B84205D0D64FB84202D0D64FB84206D1FC
:101E30004DF6FF77394046F48057394305E047F6C1
:101E4000FF57394044F48057394382830184F0BD01
:101E5000828B4FF6F3731A408283828B0A4382830C
:101E60007047F0B50C461546002200210026078C6D
:101E70004FF6FF6C07EA0C070784828B018C4FF644
:101E8000FF7707EA04264FF60C773A404FF6FF77C4
:101E900007EA03172F433A43B64FB8420ED0B64F66
:101EA000B8420BD0B0F1804F08D0B44FB84205D043
:101EB000B34FB84202D0B34FB84206D14FF6FF57E6
:101EC000394046F48077394305E04FF2FF573940F7
:101ED00044F48077394382830184F0BD028B4FF252
:101EE000FF331A400283028B4FF6FF7303EA01238C
:101EF0001A4302837047F0B50C46154600220021B4
:101F00000026078C4FF6EF7C07EA0C070784028B4C
:101F1000018C4FF6FF7707EA041640F6FF473A4078
:101F20004FF6FF7707EA03373A434FF6FF7707EAA2
:101F300005273A438F4FB8420ED08F4FB8420BD08F
:101F4000B0F1804F08D08D4FB84205D08C4FB842C9
:101F500002D08C4FB84206D14FF6DF77394046F0B9
:101F60001007394305E04FF65F77394044F010071A
:101F7000394302830184F0BD028B4FF6F3731A409C
:101F80000283028B0A4302837047F0B50C46154664
:101F900000220021068C4FF6FE773E400684028B1D
:101FA000018C4FF60C7632407E1C06EA03162E4357
:101FB0003243704EB0420ED06F4EB0420BD0B0F1F3
:101FC000804F08D06D4EB04205D06D4EB04202D069
:101FD0006C4EB04206D14FF6FD76314044F001061A
:101FE000314305E04FF6F576314044F001063143C8
:101FF00002830184F0BD70B505460C465D488542FC
:102000000ED05D4885420BD0B5F1804F08D05B48BB
:10201000854205D05A48854202D05A48854200D1AF
:1020200000E000BF208850B92389A2886188284633
:10203000FFF7ABFFE1882846FFF79EFF25E02088E9
:1020400004280AD12389A28861882846FFF753FF14
:10205000E1882846FFF742FF17E0208808280AD1C8
:102060002389A28861882846FFF7FBFEE18828467D
:10207000FFF7EEFE09E02389A28861882846FFF772
:10208000A6FEE1882846FFF795FE70BD2DE9F041D8
:1020900005460C4600260127608808B9022600E0A4
:1020A0000026A088012801D1022700E0012720880E
:1020B000A0B92389A28861882846FFF766FFE188D6
:1020C0002846FFF759FF23893A4631462846FFF74D
:1020D00012FFE1882846FFF701FF13E02389A28859
:1020E00061882846FFF707FFE1882846FFF7F6FEDC
:1020F00023893A4631462846FFF747FFE1882846BC
:10210000FFF73AFFBDE8F0810A884B881A438B88B5
:102110001A43CB881A430B891A434B891A438B897C
:102120001A43A0F8442070474FF6FF7181800021C8
:102130000180C1804180017270470021018041808F
:102140008180C180018141818181C18170470021ED
:1021500001804180012181800021C180018170477F
:102160000021018041808180C18001814181818184
:1021700070470000002C0140003401400004004082
:1021800000080040000C004021B1028842F001022A
:10219000028004E002884FF6FE731A400280704706
:1021A00031B1B0F8442042F40042A0F8442005E0E8
:1021B000B0F84420C2F30E02A0F8442070471AB1D0
:1021C00083890B43838102E083898B43838170473A
:1021D0008182704741EA0203A0F8483070471AB183
:1021E00083890B43838102E083898B43838170471A
:1021F00001894FF6F8721140018170470A460021AB
:1022000001894FF68F73194011430181704730B532
:1022100004460D4629462046FFF7F0FF208940F08E
:102220000700208130BD2DE9F04104460D461646D9
:102230001F46602D06D13B46012231462046FFF75E
:102240005AFE05E03B46012231462046FFF79DFE3F
:1022500029462046FFF7D2FF208940F00700208161
:10226000BDE8F08130B50C4600210189C9B24FF6B6
:10227000FF7505EA0325154325432943018130BD38
:102280002DE9F04105460E46174698460024434680
:102290003A4631462846FFF7E5FF2C894FF6F8709D
:1022A000044044F007044FF68F70044044F070047B
:1022B0002C81BDE8F081F0B504460D4616461F4658
:1022C0003B46324629462046FFF7CCFF208940F4A2
:1022D00080402081F0BD0185828270470A4600213E
:1022E00001884FF68F731940114301807047F0B594
:1022F0000C4615461E460021002200230189028B50
:10230000038C4FF6F877394021434FF6FC473A40AB
:1023100040F201173A434FF6DD773B404FF6FF7727
:1023200007EA06172F433B43018102830384F0BD74
:102330000A460021018B4FF68F7319401143018328
:1023400070470A460021018B48F6FF7319404FF68B
:10235000FF7303EA02231943018370470A460021F1
:10236000818B4FF68F7319401143818370470A4662
:102370000021818B48F6FF7319404FF6FF7303EA83
:10238000022319438183704721B1028842F0800201
:10239000028004E002884FF67F731A400280704783
:1023A00021B1828842F00402828004E082884FF6E4
:1023B000FB731A408280704721B1828842F0080284
:1023C000828004E082884FF6F7731A40828070475B
:1023D00021B1828842F00102828004E082884FF6B7
:1023E000FE731A40828070470A460021018B4FF627
:1023F000F77319401143018370470A460021018B8E
:102400004FF2FF7319404FF6FF7303EA022319439B
:10241000018370470A460021818B4FF6F7731940FC
:102420001143818370470A460021818B4FF2FF736D
:1024300019404FF6FF7303EA022319438183704763
:102440000A460021018B4FF6FB73194011430183AB
:1024500070470A460021018B4FF6FF3319404FF6B3
:10246000FF7303EA02231943018370470A460021E0
:10247000818B4FF6FB7319401143818370470A46E5
:102480000021818B4FF6FF3319404FF6FF7303EAAB
:1024900002231943818370470A460021018B4FF6BE
:1024A0007F7319401143018370470A460021018B55
:1024B000C1F30E014FF6FF7303EA022319430183B0
:1024C00070470A460021818B4FF67F7319401143F4
:1024D000818370470A460021818BC1F30E014FF6BC
:1024E000FF7303EA02231943818370470A460021E0
:1024F000018C4FF6FD7319401143018470470A4661
:102500000021018C4FF6F773194011430184704785
:102510000A460021018C4FF6DF7319404FF6FF7316
:1025200003EA02131943018470470A460021018C13
:102530004FF67F7319404FF6FF7303EA02131943F6
:10254000018470470A460021018C4FF6FF53194061
:102550004FF6FF7303EA02231943018470470A46CA
:102560000021018C4FF2FF7319404FF6FF7303EA0D
:1025700002231943018470470A460021018C4DF65D
:10258000FF7319404FF6FF7303EA023319430184C6
:10259000704730B5002301248C40A3B2048C9C43C7
:1025A0000484048C02FA01F5ADB22C43048430BDDE
:1025B00030B5002304248C40A3B2048C9C430484D3
:1025C000048C02FA01F5ADB22C43048430BD70B521
:1025D0000346002000241846183001258D40ACB277
:1025E0001D8CA5431D8409B1082909D100EB6100A8
:1025F000056825F0700505600568154305600EE067
:102600000D1FC5F34E052844056825F4E045056017
:1026100005684FF6FF7606EA02263543056070BD71
:1026200021B1028842F00202028004E002884FF6E3
:10263000FD731A400280704721B1028842F0040203
:10264000028004E002884FF6FB731A400280704754
:1026500021B1828842F08002828004E082884FF6B5
:102660007F731A408280704702884FF6F7731A40D2
:10267000028002880A430280704782884FF68F7377
:102680001A40828082880A438280704702894FF60E
:10269000F8731A40028102890A4302817047028955
:1026A0004FF67F731A40028102890A430281704704
:1026B00081847047818570478186704701877047A4
:1026C00081877047A0F84010704702884FF6FF439B
:1026D0001A40028002880A43028070470146888EB1
:1026E00070470146088F70470146888F7047014642
:1026F000B1F8400070470146888C70470146088D4C
:10270000704702460020138A0B400BB1012000E005
:1027100000207047CA430282704730B5024600204D
:1027200000230024158A05EA0103958905EA0104BE
:1027300013B10CB1012000E0002030BDCA43028279
:102740007047000010B50446FB48844209D10121BE
:102750008803FFF79FF800214FF48040FFF79AF8B5
:1027600032E0F648844209D101214804FFF79FF87E
:1027700000214FF40030FFF79AF825E0F04884423A
:1027800009D101218804FFF792F800214FF480203D
:10279000FFF78DF818E0EB48844209D10121C80405
:1027A000FFF785F800214FF40020FFF780F80BE0D9
:1027B000E548844208D101210805FFF778F8002197
:1027C0004FF48010FFF773F810BD2DE9F04786B085
:1027D00005460E460024A24600BFA1460027B08948
:1027E00000B100BF2F462C8A4CF6FF700440F088E1
:1027F00004432C82AC894EF6F3100440B088318932
:102800000843718908430443AC81AC8A4FF6FF400A
:102810000440B0890443AC8201A8FEF7B4FFC64867
:10282000874202D1DDF810A001E0DDF80CA0A889F4
:1028300000F4004040B10AEBCA0000EB0A10316816
:102840004900B0FBF1F807E00AEBCA0000EB0A1000
:1028500031688900B0FBF1F86420B8FBF0F00401A6
:102860002009642101FB1089A88900F4004040B1CF
:10287000322000EBC900B0FBF1F000F00700044388
:1028800008E0322000EB09106421B0FBF1F000F009
:102890000F0004432C8106B0BDE8F0874FF41651B9
:1028A000016000218180C18001810C2141810021D2
:1028B0008181704710B502460020108A4FF2FF0355
:1028C00018400B884C8823438C882343CC882343AF
:1028D0001843108210BD0021018041808180C18099
:1028E000704721B1828942F40052828104E08289DA
:1028F0004DF6FF731A4082817047F0B503460024FD
:1029000000260025002040F66A17B94200D100BF1A
:102910001846C1F3421401F01F06012707FA06F515
:10292000012C01D10C3004E0022C01D1103000E068
:1029300014301AB107682F43076002E00768AF43FD
:102940000760F0BD1AB1838A0B43838202E0838A59
:102950008B4383827047028A4FF6F0731A400282DB
:10296000028A0A430282704782894FF2FF731A403B
:10297000828182890A438281704721B1828942F033
:102980000202828104E082894FF6FD731A4082813F
:102990007047028A4FF6DF731A400282028A0A43A6
:1029A0000282704721B1028A42F48042028204E02E
:1029B000028A4BF6FF731A4002827047C1F3080285
:1029C0008280704701468888C0F30800704781897B
:1029D00041F0010181817047028BD2B20283028BE8
:1029E00042EA012202837047028B02F47F42028393
:1029F000028B0A430283704721B1828A42F020028F
:102A0000828204E0828A4FF6DF731A408282704726
:102A100021B1828A42F01002828204E0828A4FF65B
:102A2000EF731A408282704721B1828A42F0080215
:102A3000828204E0828A4FF6F7731A4082827047DE
:102A400021B1828942F40042828103E08289C2F38B
:102A50000E028281704721B1828A42F40062828232
:102A600004E0828A4FF2FF731A4082827047828AA2
:102A70004FF6FB731A408282828A0A438282704731
:102A800021B1828A42F00202828204E0828A4FF6F9
:102A9000FD731A408282704702460020B1F5007F24
:102AA00000D100BF13880B400BB1012000E00020D3
:102AB000704701F40072B2F5007F00D100BFCA4335
:102AC0000280704770B502460024002300250020D4
:102AD00040F66A16B14200D100BFC1F3421501F0C1
:102AE0001F03012606FA03F3012D02D19689334014
:102AF00006E0022D02D1168A334001E0968A334067
:102B00000C12012606FA04F41688344013B10CB1F5
:102B1000012000E0002070BD10B50022002340F627
:102B20006A14A14200D100BF0A1201249440A3B24A
:102B3000DC43048010BD0000003801400044004028
:102B400000480040004C004000500040F0B480EAD3
:102B50000102D40F4200B2EB410F02D202460846F6
:102B600011464A0042D0C30DDDB2C1F3C752AD1ABF
:102B7000202D35DAC1F3160141F4000204B15242AE
:102B8000C5F1200602FA06F12A411044B3EBD05FEA
:102B900023D0C4B1012DA0EBC35009DCF0BC4FF031
:102BA000004202EAC352DBB200F5000000F06ABA4C
:102BB000400000F1807000EBC350A0F1807040EA4B
:102BC000D170490009E0490841EAC071A0EBC35047
:102BD00000F50000400800EBC350F0BC00F049BA1B
:102BE0006142012202EB4101001BF6E7F0BC704795
:102BF00081F00041AAE780F00040A7E780EA0102E7
:102C000010B502F00043400022D04A001FD0010E50
:102C100001EB1261C0F35600C2F3560240F400000B
:102C200042F40002A0FB022000047F39140400D00B
:102C3000401C50EA124001D44000491EC2B20C06AA
:102C400004EBD010401C4008802A02D003E0002092
:102C500010BD20F00100002900DA0020184310BD4B
:102C600030B480EA010202F0004530F0004221F069
:102C7000004013D090B1C30DD40DC2F31601C0F3C0
:102C80001600E41A41F4000140F400027D34914240
:102C900001D3641C00E04900002C02DA30BC0020A3
:102CA00070474FF400000023914201D3891A034377
:102CB00040084FEA4101F7D151B1914202D14FF0A2
:102CC000004105E002D24FF0010101E06FF0010187
:102CD00003EBC450284430BC00F0CBB92DE9FE4FC3
:102CE000804681EA0300C00F0C46009021F00041AD
:102CF00023F00045B8EB0200A94105D24046214629
:102D000090461C460B46024623F00040104347D035
:102D1000270DC7F30A00C3F30A510290401A01902D
:102D200040286BDAC3F3130040F4801B00989246EE
:102D300020B10023D2EB030A63EB0B0B0198594639
:102D4000C0F14002504600F073F906460D46504669
:102D50005946019A00F07BF910EB0800614100240C
:102D600087EA115284EAE7731A4340D0009A62B3AB
:102D7000019A012A4FEA075215DC001B61EB0201A0
:102D80004FF0004202EA0752CDE90042001C41F533
:102D9000801132462B4600F0B2F903B0BDE8F08F47
:102DA00040462146F9E7001B61EB0201001C41F59A
:102DB000801300185B412018A2F5001747EB0301B0
:102DC00040EAD570B6196D4111E06D084FEA36063C
:102DD00045EAC0754FEA0752001B61EB0201001C77
:102DE00041F5801149084FEA30000019514132463F
:102DF0002B4603B0BDE8F04F00F072B900980122F5
:102E000040000023D0EB020263EBE0730098214600
:102E10004FEAE074B8EB000061EB0401E9E783F0EE
:102E200000435BE781F0004158E72DE9FE4F81EA5E
:102E3000030404F0004421F0004100944FF0000B23
:102E400023F0004350EA01045ED052EA03045BD051
:102E5000C3F30A54C1F30A552C44A4F2F334019489
:102E6000A0FB0254C1F3130141F48011C3F3130317
:102E700043F4801301FB024400FB034E840A970ACB
:102E800044EA815447EA8357A4FB076802958D0AF8
:102E900005FB07854FEA932C04FB0C542705029D84
:102EA0004FEA065847EA1637B5EB08056EEB070CF4
:102EB000870E920E47EA811742EA8312A7FB0201AE
:102EC000B6EB0B0164EB00042B0D43EA0C335E18E8
:102ED00044EB1C50DA465146E7FB0201C5F31304EC
:102EE0004FEA0B3343EA14534FEA0432019C43EA9E
:102EF0000603A4F10C040294009CCDE900B400F098
:102F0000FEF803B0BDE8F08F00200146F9E7C10FDD
:102F100080EAE0700844CA079623002100F0B2B8A6
:102F200020F00040C10DC0F3160040F400007F29DE
:102F300001DA00207047962903DCC1F19601C840F0
:102F4000704796398840704700F0004230F00040EA
:102F50000AD0C10D01F56071C0F3160042EA0151BB
:102F6000C208400711437047002001467047000027
:102F700030B5041E71F1000404DB4FF00044404200
:102F800064EB0101141E73F1000405DB1C464FF0D5
:102F90000043524263EB04038B4208BF824230BDC0
:102FA00030B5041E71F1000404DB4FF000444042D0
:102FB00064EB0101141E73F1000405DB1C464FF0A5
:102FC0000043524263EB0403994208BF904230BD74
:102FD00001F0004330B421F0004150EA010206D074
:102FE0000A0DA2F56072C1F31301002A02DC30BCA5
:102FF00000207047440F44EAC104C100E01830BC0F
:1030000000EBC25000F035B8002801DBC0F10040F1
:10301000002901DBC1F1004181427047002801DB3A
:10302000C0F10040002901DBC1F100418842704736
:10303000202A04DB203A00FA02F100207047914078
:10304000C2F1200320FA03F3194390407047202A6D
:1030500006DBCB17203A41FA02F043EAE07306E0C0
:1030600041FA02F3D040C2F12002914008431946D0
:1030700070470029A8BF7047401C490008BF20F0D6
:103080000100704710B4B0FA80FC00FA0CF050EA6E
:10309000010404BF10BC704749B1CCF1200421FAEF
:1030A00004F411FA0CF118BF012121430843A3EBEA
:1030B0000C01CB1D4FEA00614FEA102042BF0020F7
:1030C00010BC704700EBC35010440029A4BF10BCD3
:1030D0007047401C490008BF20F0010010BC704739
:1030E00010B5141E73F1000408DA401C41F1000110
:1030F00092185B411A4301D120F0010010BD2DE967
:10310000F04D92469B4611B1B1FA81F202E0B0FA5D
:1031100080F220329046FFF78BFF04460F4640EACC
:103120000A0041EA0B0153465A46084313D01146A0
:1031300053EA010019D0C8F14002504600F040F8AF
:1031400005460E46504659464246FFF771FF084372
:1031500005D0012004E020463946BDE8F08D00206E
:10316000054346EAE0762C4337430A986305E40AB0
:10317000A0EB08000022FD0A44EA47540A3002D5B9
:1031800000200146E9E7010510196941DDE908451C
:1031900000196941BDE8F04DA2E70000064C074D5B
:1031A00006E0E06840F0010394E807009847103417
:1031B000AC42F6D3FCF7C0FF003200082032000812
:1031C000202A04DB203A21FA02F00021704721FA7C
:1031D00002F3D040C2F120029140084319467047E3
:1031E00002E008C8121F08C1002AFAD170477047D0
:1031F000002001E001C1121F002AFBD1704700002E
:103200002032000800000020C0000000E03100086B
:10321000E0320008C0000020C8040000F0310008BF
:1032200000320000000000000000A041000000404B
:103230000000003F0000000000000000000000004F
:10324000000000000000000000000000000000007E
:10325000000000000000000000000000000000006E
:10326000000000000000000000000000000000005E
:10327000000000000000000000000000000000004E
:103280000000000000A24A0400000000000000004E
:103290000102030406070809000000000000000006
:1032A000000000000100000001000000010000001B
:1032B000010000000000000000000000000000000D
:1032C00000000000000000000100000000000000FD
:1032D00001020304010203040607080902040608A8
:0400000508000131BD
:00000001FF
